:020000040800F2
:1000000020D800204103000875570008314400083B
:10001000A550000805180008C1690008000000008C
:10002000000000000000000000000000995E0008D1
:100030001518000800000000955E0008FD5E00082D
:100040005B0300085B0300085B0300085B03000818
:100050005B0300085B0300085B0300085B03000808
:100060005B0300085B0300085B0300085B030008F8
:100070005B0300085B0300085B0300085B030008E8
:100080005B0300085B0300085B0300085B030008D8
:100090005B0300085B0300085B0300085B030008C8
:1000A0005B0300085B0300085B0300085B030008B8
:1000B000196000085B0300085B0300085B0300088D
:1000C0005B0300085B0300085B0300085B03000898
:1000D0005B0300086D6800085B0300085B03000811
:1000E0005B0300085B0300085B0300085B03000878
:1000F0005B0300085B0300085B0300085B03000868
:100100005B0300085B0300085B0300085B03000857
:100110005B0300085B0300085B0300085B03000847
:100120005B0300085B030008091800085B03000874
:100130005B0300085B0300085B0300085B03000827
:100140005B0300085B0300085B0300085B03000817
:100150005B0300085B0300085B0300085B03000807
:100160005B0300085B0300085B0300085B030008F7
:100170005B0300085B0300085B030008000000004D
:100180005B0300085B03000800F002F800F0C8F809
:1001900014A696E8000CB244B344DA4501D100F04D
:1001A000BFF8BAE80F000FA696E83000A5EB0405EB
:1001B00004EB0607AAEB0704A7F101074FEA1515A0
:1001C0004FEA3414A4F10104AC4201D300F0A8F8C2
:1001D00013F0010F18BFFB1A43F0010300F001F800
:1001E000DBE718479CC20300BCC203000A444FF07F
:1001F000000C10F8013B13F0070408BF10F8014B86
:100200001D1108BF10F8015B641E05D010F8016BCA
:10021000641E01F8016BF9D113F0080F1EBF10F82E
:10022000014BAD1C0C1B09D16D1E58BF01F801CB51
:10023000FAD505E014F8016B01F8016B6D1EF9D5D4
:100240009142D6D37047000070470000002300247D
:1002500000250026103A28BF78C1FBD8520728BFD6
:1002600030C148BF0B6070476E2900F05D84702973
:1002700000F0C587662937F02D85652937F02A8576
:10028000672937F02785612937F0268503681B0A1F
:1002900028BF41F08001692900F05881642900F0ED
:1002A0005581752900F052816F2900F05387782914
:1002B00000F09187E92900F0ED86E42900F0EA8654
:1002C000F52900F0E786EF2900F05087F82900F0C3
:1002D00090870368DB0928BF41F08001632900F0A3
:1002E0006F86732900F07486E32901F0A581F32954
:1002F00001F0AA81002070471FB537F0DEFC00F046
:1003000089FF04000020002137F04AFC401C606097
:100310000020002137F02EFCE0601FBD10B510BD9D
:1003200001F030FA1146FFF7E7FF2FF0F1FA01F084
:1003300057FA03B4FFF7F2FF03BC01F05BFA0000C9
:100340000948804709480047FEE7FEE7FEE7FEE769
:10035000FEE7FEE7FEE7FEE7FEE7FEE704480549A5
:10036000054A064B70470000A95F00088901000894
:1003700020D2002020D8002020D4002020D400202B
:1003800053EA020C00F069802DE9F04B4FF00006B3
:10039000002B1FBFB3FA83F503FA05F424FA05F620
:1003A0005E4012BF1643B2FA82F502FA05F4C5F1B7
:1003B00020051EBF22FA05FC44EA0C04203556EA4B
:1003C000044C4FEA144418BF641C4FF000084FF06F
:1003D0000009904271EB030C39D3002919BFB1FA1F
:1003E00081F701FA07F6B0FA80F700FA07F6C7F1CD
:1003F00020071EBF20FA07FC46EA0C062037B6FB92
:10040000F4FCA7EB0507103F07F01F0BCBF120060C
:100410002CFA06F60CFA0BFB44BFB3460026202F3D
:10042000A4BF5E464FF0000B5BEA060C08BF4FF01E
:10043000010B19EB0B0948EB0608ABFB027C06FB32
:1004400002CC0BFB03CCC01B71EB0C01C1E70B46CC
:10045000024641464846BDE8F08B13B5084318BF35
:100460004FF0FF300146AFF30080BDE81C407047FD
:100470007CB51D4616460C00009007D04142A142B3
:1004800002D32044401E01E04FF0FF30064B7B4476
:100490002A4669460190304600F06DFD002C02D0DE
:1004A000009A002111707CBD0B0B000070B5044652
:1004B00085690068C10601D5302600E02026C00706
:1004C00007D070BDD4E9012130469047206A401C16
:1004D00020626D1EF6D570BD70B504468569007842
:1004E000C00707D170BDD4E9012120209047206AC0
:1004F000401C20626D1EF6D570BD70B50C460546D9
:10050000012A05D02878800600D5EA69002302E098
:10051000012305E05B1C934202D2E05C0028F9D184
:10052000A869E618C01AA861286A184428622846F3
:10053000FFF7BCFF04E0D5E9012114F8010B904757
:10054000B442F8D32846FFF7C7FF70BD2DE9F0414C
:100550000646002410687529314616A510D000F013
:1005600078FA002802DA404213A507E031688A07CA
:1005700001D512A502E0490704D511A5012401E027
:1005800000F070FA00210A2206F1240709E0B0FB0E
:10059000F2FCB0FBF2F302FB1C003030785418463A
:1005A000491C0028F3D123462A463046BDE8F041D5
:1005B00000F061BA000000002D0000002B000000D8
:1005C000200000002DE9F05F894604464FF0000A44
:1005D000DFF874B1FB44C0F820A02046E1688847EA
:1005E000002874D0252806D0D4E901219047206A3C
:1005F000401C2062F1E700265F462046E1688847FC
:100600002028054607DB312D05D2781910F8200C7B
:1006100008B10643F1E7B00701D526F00406C4F897
:100620001CA00027C4F818A02A2D09D0284637F0AE
:1006300099FA38B304EB8708303DC8F8185019E030
:1006400059F8041B204604EB87029161E168884752
:10065000012F054618D1E069002820DA26F020068F
:100660001DE0D8F8180000EB800005EB40003038A2
:10067000C8F818002046E1688847054637F072FA46
:100680000028EED1012F0AD02E2D08D12046E16896
:1006900088477F1C0546022F46F02006C4DBA06970
:1006A000002803DA404246F00106A061F00701D0BD
:1006B00026F010066C2D0BD0682D09D04C2D39D0AA
:1006C0006A2D35D0742D35D07A2D33D016E038E030
:1006D000E1682F4620468847B842054609D16C2F6D
:1006E00026D04FF48060E1680643204688470546DF
:1006F00004E06C2F1AD04FF4807006430DB3A5F1BF
:100700004100192802D8203546F400664A46294699
:10071000204626604E46FFF7A7FD80B101280BD08A
:10072000F61D26F0070000F1080956E74020E4E72F
:100730008020D8E70020D6E706F104094DE72846D7
:1007400052E7206ABDE8F09F0477030040EA010306
:1007500010B59B070FD1042A0DD310C808C9121F6A
:100760009C42F8D020BA19BA884201D9012010BDA4
:100770004FF0FF3010BD1AB1D30703D0521C07E071
:10078000002010BD10F8013B11F8014B1B1B07D1D5
:1007900010F8013B11F8014B1B1B01D1921EF1D146
:1007A000184610BD40EA0103024630B59B0710D140
:1007B0004FF0013400E008C208C91D1B9D4315EA33
:1007C000C41FF8D013F0FF0102F8011B0DD01B0A63
:1007D000F8E711F8013B002B02F8013B05D011F8B6
:1007E000013B002B02F8013BF3D130BD10B5431C97
:1007F00002E010F8011B71B18107FAD14FF001320C
:1008000002C88C1A8C4314EAC211F9D0C01A0A0625
:1008100003D0C01E10BDC01A10BD0A0401D0801E36
:1008200010BD0902FCD0401E10BD032A40F23080EA
:1008300010F0030C00F0158011F8013BBCF1020F21
:10084000624498BF11F801CB00F8013B38BF11F8A2
:10085000013BA2F1040298BF00F801CB38BF00F8B9
:10086000013B11F0030300F02580083AC0F0088036
:1008700051F8043B083A51F804CBA0E80810F5E71A
:10088000121D5CBF51F8043B40F8043BAFF30080FD
:10089000D20724BF11F8013B11F801CB48BF11F872
:1008A000012B24BF00F8013B00F801CB48BF00F842
:1008B000012B704710B5203AC0F00B80B1E81850FA
:1008C000A0E81850B1E81850A0E81850203ABFF43A
:1008D000F5AF5FEA027C24BFB1E81850A0E81850D9
:1008E00044BF18C918C0BDE810405FEA827C24BF2D
:1008F00051F8043B40F8043B08BF7047D20728BFBB
:1009000031F8023B48BF11F8012B28BF20F8023B09
:1009100048BF00F8012B704702F0FF0343EA0322AF
:1009200042EA024200F00AB802F0FF0343EA03225F
:1009300042EA024200F024B84FF000020429C0F05D
:10094000128010F0030C00F01B80CCF1040CBCF101
:10095000020F18BF00F8012BA8BF20F8022BA1EB53
:100960000C0100F00DB85FEAC17C24BF00F8012B38
:1009700000F8012B48BF00F8012B70474FF0000230
:1009800000B5134694469646203922BFA0E80C5085
:10099000A0E80C50B1F12001BFF4F7AF090728BF60
:1009A000A0E80C5048BF0CC05DF804EB890028BFDC
:1009B00040F8042B08BF704748BF20F8022B11F005
:1009C000804F18BF00F8012B7047000000000000A6
:1009D00030B44FF0013C50F8042B51F8043BCCFAF2
:1009E00052F4D51A20D1FCB950F8042B51F8043B2D
:1009F000CCFA52F4D51A17D1B4B950F8042B51F8E7
:100A0000043BCCFA52F4D51A0ED16CB950F8042B31
:100A100051F8043BCCFA52F4D51A05D1002CDAD0A7
:100A200030BC4FF00000704729BAB1FA81F111F0E3
:100A30001801D1F120008440F2D1CA40CB4012F01D
:100A4000FF0213F0FF0330BCD01A704770477047A5
:100A5000704709684A0501D540B27047C905FCD501
:100A600000B2704709684A0501D5C0B27047C90590
:100A7000FCD580B270472DE9F0470D469946924665
:100A8000044600F124080168880604D5E06921F0D5
:100A90001001216000E00120A84201DD471B00E0B9
:100AA0000027A1697A1902EB0900081AA0612078D1
:100AB000C00602D42046FFF7F9FC002608E0D4E97E
:100AC00001211AF806009047206A401C761C20621B
:100AD0004E45F4DB2078C0060AD52046FFF7E6FC39
:100AE00006E0D4E9012130209047206A401C2062B2
:100AF000381EA7F10107F4DC07E0D4E9012118F85A
:100B000005009047206A401C2062281EA5F10105BF
:100B1000F3DC2046FFF7E0FC2078000602D5022037
:100B2000BDE8F0870120FBE711680268006A530501
:100B300001D508700AE0D30501D5088006E0130648
:100B400003D5C217C1E9000200E008600120704728
:100B50002DE9FF4F0C461E464FF0FF378BB0D2E910
:100B60000001DDF860800A908A46C1F30A5505B994
:100B70003D46002108464FF00000BAF1000F00F496
:100B8000400005DA00EB80004FF4400101EA50001C
:100B90004FEA9059B9F1010F00DDB9460A9850EAC1
:100BA0004A000ED044F61050A5F2FF3545432F14ED
:100BB000B8F1000F1ED07542291E1EDDC9F10002DA
:100BC0001CE0B8F1010F4FF0000001D0302103E02C
:100BD000F24305E02154401CB042FBDB30460022CA
:100BE000002121540B99C1F80880C1E900200FB001
:100BF000BDE8F08FBD1B6D1CDEE74A4600DA694296
:100C000006A800F025FD06AB93E8070003AB83E8D8
:100C1000070050460A9936F0C4FB8DE80700A0F59E
:100C200000501F3800900398002D0ADD42F21F018A
:100C30004A460844002303A90390684636F02EFE76
:100C400009E0A0F500504A461F38002303A903908D
:100C5000684636F038FE8DE807000004000C03D02B
:100C60004FF0FF30410800E01046B8F1000F03D00C
:100C70000022009215461EE0751E05D400F0CEFA43
:100C8000303262556D1EF9D5B3460122084302D0B9
:100C900000227F1C04E02078302801D100227F1E32
:100CA000002A099784D01DE0112D07DA00F0B6FA6A
:100CB000303262556D1C50EA0102F5D1084302D072
:100CC0000098C8B10EE00021681E05E0235C625C5C
:100CD00063542254401E491C8142F7DBAB46A81BDB
:100CE000401E0990002004F80B000B98099AC0F8E8
:100CF0000880C0E9002B7AE711264FF0000857E77B
:100D00002DE9F04F88460446D21D22F0070191B02C
:100D1000D1E90001CDE90A0136F00CFF02460B983B
:100D2000C00F01D02D2007E02068810701D52B20BE
:100D300002E0202101EAC000032A099001D0072A1D
:100D400005DB03464146204600F02CFC0BE12078F1
:100D5000800601D5E06900E00620B8F1650F814604
:100D600006D0B8F1660F18D0B8F1670F70D131E036
:100D70000020B9F1110F009001DB112301E009F10E
:100D800001030AAA01A90CA8FFF7E2FEDDE90C7035
:100D9000002609F10105834647E001204B460090FB
:100DA0004FF000470AAA01A90CA8FFF7D1FEDDE920
:100DB0000DB00C995D46002610B909F101000D181F
:100DC000B9EB050003D4C0F1FF3609F10105A5EB2D
:100DD00009002BE0B9F1010F01DA4FF00109002001
:100DE000B9F1110F0090484601DD112300E00346E0
:100DF0000AAA01A90CA8FFF7ABFEDDE90C704D466D
:100E000000268346207800070AD4AB4500DA5D4609
:100E100001A8012D04DD411911F8011C302907D06A
:100E20004F4502DA17F1040F04DA012082460FE081
:100E30006D1EEEE7002F02DCED1B3E4403E0781C44
:100E4000A84200DD7D1CB81B00F1010A4FF00047ED
:100E50002078000703D4AA4501DB4FF0FF3A0021B8
:100E6000B7F1004F0DF143088DF8431024D0022054
:100E70002B23002F01DA7F422D230A21021EA0F12D
:100E8000010000DC5FB197FBF1FC97FBF1F201FB85
:100E90001C7C17460CF1300C08F801CDEEE7A8F1E8
:100EA000010003702188090501D5452100E0652175
:100EB000A0F1010800F8011C09980FA9A1EB08078F
:100EC000FF1D00B10120411901EBEA70A16938440E
:100ED000081A401EA0612078C00602D42046FFF701
:100EE000E5FA099828B1D4E901219047206A401C0D
:100EF00020622078C00622D52046FFF7D7FA1EE0F0
:100F0000002E04DBB34502DD01A8805D00E0302047
:100F1000D4E901219047206A401C2062761CAAF186
:100F200001005FEA000A0AD100F074F9C0680168A4
:100F3000405CD4E901219047206A401C2062281EB1
:100F4000A5F10105DCDC07E0D4E9012118F8010B6B
:100F50009047206A401C2062381EA7F10107F3DC8D
:100F60002046FFF7B9FA032011B041E601694A1C97
:100F700002610878704700B58FB0CDE901310021DA
:100F8000059105497944CDE9031011466846FFF7FC
:100F900019FB0FB000BD0000E5FFFFFFD1E9002302
:100FA0009A4202D2531C0B601070704710B543690F
:100FB00013B1AFF3008001E0FFF79FFA012010BDED
:100FC000127800F124010A7000224A700122EDE734
:100FD00011684FF0FF32E9E72DE9FF5F15468A46B9
:100FE0000446DFF8AC80F8440027D8E900103E46FC
:100FF000CDE9001010E03AF816106A4602A800F099
:1010000099FB411C07D02178890603D5E26939187C
:1010100091420DD80744761C2078800602D5E069FD
:10102000B84205DDAE42E6DB3AF816000028E2D110
:10103000A069C01BA0612046FFF738FAD8E900106C
:10104000CDE90010002017E03AF818106A4602A80F
:1010500000F070FBB0F1FF3F81460BD000250DF191
:10106000080B05E0D4E901211BF8050090476D1C31
:101070004D45F7D308F10100B0428046E4DB206A19
:10108000384420622046FFF727FABDE8FF9F0000A2
:10109000066D03002DE9F0418046D21D22F00702C3
:1010A0000025D2E90002F52915A614D0011E72F11F
:1010B000000106DA0023D0EB030063EB020211A665
:1010C00008E0D8F800108B0701D50FA602E0490709
:1010D00001D50EA601251146002408F1240704E0DD
:1010E00000F09CF830323A55641C50EA0102F7D106
:1010F0002B46324621464046BDE8F041FFF7BBBCD7
:10110000000000002D0000002B0000002000000067
:1011100030B4002100F1240408E002F00705D208F1
:10112000303542EA4372DB086554491C52EA030534
:10113000F3D10468002310A2250708D504F0200489
:101140000C4304D0C46901230CA2641EC46130BCEA
:10115000FFF791BC10B5044621461068FFF782FCEA
:1011600002462046BDE810400023D1E7D21D22F000
:101170000701D1E90023CBE70000000030000000A8
:10118000F0B40D460188090502D5214C7C4402E0EB
:101190001F4C7C440E34002100F1240608E002F0CC
:1011A0000F071209E75D42EA03721B097754491CD5
:1011B00052EA0307F3D102780023120704D5702DF9
:1011C00006D009B1022311342246F0BCFFF753BC0C
:1011D00001231034F8E770B504460D462146106827
:1011E000FFF740FC024629462046BDE87040002338
:1011F000C6E7D21D22F00703D3E90023C0E7036846
:10120000126843F0200303600823C3610023B7E79B
:10121000686B0300004870473002002030B5B0F121
:101220000A0271F100034FEA900E4EEA817EB0EBA4
:101230000E0061EB91014FEA101E4EEA017E10EBA9
:101240000E0041EB11114FEA102E4EEA016E10EB29
:101250000E0041EB11214FEA104E4EEA014E10EB09
:101260000E0041EB1141401841F100014FEAD0005E
:1012700040EA41704FEAD1014FEA810444EA907498
:1012800010EB800544EB01046D1944EB0404521B80
:10129000A3414FF0000348BF0A3200D530BD401CC7
:1012A00041F1000130BD00002DE9F04F04460D462C
:1012B000D21D22F0070089B0D0E900974846394690
:1012C00036F038FC0246F80F01D02D2307E02068E5
:1012D000810701D52B2302E0202101EAC0038DF80C
:1012E00020300BB1012000E00020032A824601D00B
:1012F000072A04DB2946204600F054F93FE1207814
:10130000800601D40D2500E0E569C7F30A560D2DCE
:1013100049DA00214FEA175B08464FF00000002F22
:1013200000F4400007DA00EB80004FF4400100EBCE
:10133000D07001EA60008115012901DD4FF0FF3115
:1013400000224FEA850CBCF1180F06D31346ACF10E
:1013500018004FF08052C24003E04FF4801323FA8C
:101360000CF30CF10C0CBCF1200F04D3ACF1200CED
:1013700009FA0CF001E007FA0CF000294FF00048E0
:1013800001DD18B90FE00ED140450CD319EB02096D
:101390005F4121B9404502D19F4329EA0209BBEBD5
:1013A000175F00D0761C2088000502D57B48784462
:1013B00002E07A487844193808AA302302F80A3043
:1013C000037C0AF10101002E0AF1020A53546A4615
:1013D00002DC4FF0300101E04FF031014FF0010825
:1013E0008DF8001002D0A6F2FF3603E059EA47015B
:1013F00000D06B4E002D02DC2178090704D54FF098
:1014000002082E218DF80110C44600210BE0C7F31D
:1014100003433F01C35C491C6D1E02F808300529D7
:1014200008F1010801DA002DF1DC00210CE000EBED
:101430001973491C1B786D1E082902F808304FEA01
:10144000091908F1010801DA002DF0DC21688B068A
:1014500002D516E0A8F10108E04505DD02EB08031E
:1014600013F8013C302BF5D0B8F1000F09DD02EB89
:10147000080313F8013C2E2B03D1090701D4A8F16E
:101480000108002D05DD3E2102F808106D1E08F14F
:101490000108407C002E02F8080008F1010804DA77
:1014A0002D20764202F8080002E02B2002F8080006
:1014B0000A214FF47A70864208F101080BDB96FB93
:1014C000F0F3303302F8083096FBF0F308F101082E
:1014D00000FB136601E0642E0CDB642096FBF0F346
:1014E000303302F8083096FBF0F308F1010800FBF6
:1014F000136601E00A2E06DB96FBF1F0303002F8AD
:10150000080008F1010896FBF1F001FB1060303093
:1015100002F80800A16908F1010808EB050202EBD6
:101520000A00081AA0612078C00602D42046FEF7FF
:10153000BDFF216A08AE01EB0A00206204E0D4E995
:10154000012116F8010B9047BAF1010AF7D2207871
:10155000C00602D52046FEF7A9FF6E4609E016F840
:10156000010B3E280FD0D4E901219047206A401C8E
:101570002062B8F10108F2D22046FEF7ADFF09B0B3
:101580000320BDE8F08F206A2844206203E0D4E9FC
:101590000121302090476D1EEBD3F8E781690300ED
:1015A00002FCFFFF2DE9F0411F46044603260168B7
:1015B000072A01F4006004DB08B116A505E016A5B2
:1015C00003E008B115A500E015A521F0100020608A
:1015D000A069C01EA0610FB1401EA0612046FEF7A9
:1015E00065FF4FB1D4E9012138469047206A401C7D
:1015F0002062C01C206206E0206AFAE7D4E90121DB
:1016000015F8010B9047761EF8D22046FEF764FFCE
:10161000BDE8F0814E414E006E616E00494E4600BD
:10162000696E660010B5436913B1AFF3008001E045
:10163000FFF7D2FC012010BD128800F12401828442
:101640000022C2840122EDE711684FF0FF32E9E782
:101650002DE9F047814616468AB0354878440DC8D2
:101660008DE80D0032487844801C03AC0DC884E836
:101670000D0041F69B300844372190FBF1F290FBBE
:10168000F1F5A5F1800501FB12041B3C02D5644273
:10169000012000E00020DFF898A080460027FA44EF
:1016A000AAF1BE0A0EE0E0070AD03246684607EB10
:1016B000470101230AEB810136F005F98DE80700A7
:1016C00064107F1C002CEED1194F7F44AE3F19E00F
:1016D000E80715D007EB04100DF1180A90E80E008A
:1016E0008AE80E00C068F04201D19819089032468D
:1016F000012306A903A836F0E6F803AB83E8070048
:101700006D10641C002DE3D14FF001033246694691
:10171000B8F1000F03A802D036F0C0F801E036F0AF
:10172000D2F8C9E90001C9F808200AB0BDE8F0877D
:10173000646703002DE9F04116460C46054600F0AB
:1017400047F8036893F80101012807D0FF2C12D84D
:10175000185D80B101202C70BDE8F081D3F807013D
:101760003246214603F20713C7182846BC46BDE897
:10177000F041002360474FF0FF30EDE7004870472D
:10178000100200207546FFF7F9FFAE4605006946D6
:10179000534620F00700854618B020B5FEF7DEFD61
:1017A000BDE820404FF000064FF000074FF0000862
:1017B0004FF0000BAC46ACE8C009ACE8C009ACE89F
:1017C000C009ACE8C00921F007018D467047000050
:1017D00010B5FFF71FFD001D10BD00BFC56303005E
:1017E00010B50446AFF300802046BDE81040FEF778
:1017F000A0BD000001491820ABBEFEE72600020094
:1018000070470000FEE7000040F6D810C2F200006A
:1018100000F00CB97047000080B582B04FF6694CFB
:101820004FF6354E40F29810C0F6020CC0F6020E8C
:10183000C2F20000042100220023CDE900EC0CF0EC
:1018400057F928B101200CF01DFB002002B080BD2B
:101850004FF0FF3002B080BD10B504460160027148
:1018600008463C2101F006FD206800210068416225
:10187000C4F80610C4F80A10C4F80E10C4F8121008
:10188000E18210BD01689FED1B1A09689FED1B2ABC
:101890004A6A037912B2002B18BF524213B200EE0B
:1018A000103AB8EEC00A80EE010A9FED131A002329
:1018B000C2804B62816801FA82F1816020EE011AD8
:1018C00081EE021A9FED0E2A20EE020A9FED0D2AEC
:1018D00080ED040A80ED031A90ED051A21EE021A3C
:1018E0009FED092A20EE020A30EE010A80ED050A7A
:1018F000704700BF00E0C144E25CA3410AD7233C2B
:101900000080BB453333333F9A99993E10B540F27E
:10191000BC24C2F2000440F61C31C2F20001204691
:101920000122FFF799FF40F6643104F11800C2F27A
:1019300000010122BDE81040FFF78EBF10B540F254
:10194000BC24C2F200042046FFF79CFF04F11800FB
:10195000BDE81040FFF796BF72B600BFFEE700007B
:101960007047000080B503F0A9F840F6D411C043D9
:10197000C2F20001087080BD70B5866D044600F0AB
:101980002BFB94F83510022928D105462068216CDC
:10199000026822F016020260426922F0800242616F
:1019A00009B9A16C19B1016821F008010160016851
:1019B00021F00101016000BF20680068C00715D058
:1019C00000F00AFB401B0628F6D3202060650320A8
:1019D00084F83500002184F8341070BD80206065E3
:1019E0000120002184F8341070BD00BFE06D3F215C
:1019F00001FA00F0B060012084F8350000200021D9
:101A000084F8341070BD000090F83510022909D117
:101A1000052180F835100068016821F0010101609E
:101A2000002070478021416501207047F0B581B0EA
:101A30000021009140F2A401C2F200010B68D0E93C
:101A4000166148F2B51537680822C1F64E358A404E
:101A50003A42A3FB05350CD003681C68640708D51F
:101A60001C6824F004041C60B260426D42F0010264
:101A7000426501228A403A4208D003685B691B062E
:101A800004D5B260426D42F00202426504228A40EF
:101A90003A4208D003681B689B0704D5B260426DC8
:101AA00042F00402426510228A403A4219D001688D
:101AB0000B681B0715D5B2600B680A685B0309D475
:101AC000D20509D40A6822F008020A60016C29B91B
:101AD00007E000BF110341D4016C11B104468847EF
:101AE0002046C26D202101FA02F33B4243D0016837
:101AF0000F68FF063FD5B36090F835700B68052F6F
:101B00001CD123F016030B604B6923F080034B615B
:101B1000036C0BB9836C1BB10B6823F008030B60DB
:101B20003F219140B160012180F83510016D002204
:101B3000002980F8342054D158E000BF0A685B03C4
:101B400010D4D20512D40A6822F010020A600121D2
:101B500080F83510002180F8341007E0816C0029EE
:101B6000BCD1BEE7110301D4416C00E0C16B11B1DF
:101B7000044688472046416DC1B3416DC9072ED048
:101B8000052180F835100168AA0A0B6823F00103CB
:101B90000B60009B0133934200931AD80B68DB075C
:101BA00017D0009B01339342009312D80B68DB07D8
:101BB0000FD0009B0133934200930AD80B68DB07D8
:101BC00007D0009B01339342009302D80B68DB07D8
:101BD000DFD1012180F83510002180F83410C16C6C
:101BE00021B101B0BDE8F040084700BF01B0F0BD31
:101BF0002DE9F041044600F0EFF9ECB10546022072
:101C000084F835000020216884F83400086820F04A
:101C10000100086021680868C00711D000F0DCF9F5
:101C2000401B0528F6D9032520230320636584F88B
:101C30003550BDE8F08100BF0120BDE8F08100BF54
:101C4000086848F23F02CFF21002D4E9013500EAF9
:101C5000020C04F10C0898E8C10143EA0C032B4381
:101C60001843D4E9072E304338431043626A40EAF0
:101C70000E00042A40EA08031CD1206BD4E90A2E86
:101C800040EA0E00184308604869BEF1000F20F0DA
:101C9000030040EA020040F0040C11D0B8F5005FE8
:101CA00036D0B8F1000F45D1022A46D0012A3BD0E8
:101CB00032B942E00B60486920F0070040EA020CAC
:101CC00001F0F8004AF6AB221038CAF6AA22A0FBAF
:101CD00002231A0947F6C873C1F814C0C0F60303FB
:101CE0009A5C40F2FF335F284FF03F0021EA030186
:101CF00000FA02F088BF0431C4E91612886000239C
:101D000001250020636584F83550BDE8F08100BFEF
:101D1000032AD5D8012540230120DFE802F0030E75
:101D2000030500BF82E700BFAEF1C070B0FA80F0DB
:101D3000400904E0032A04D3C2D1CEF30060002896
:101D4000BED0012540230120636584F83550BDE8ED
:101D5000F081000090F834C0BCF1010F04BF0220F4
:101D6000704770B54FF0010C80F834C0D0F858E0DF
:101D700090F835C0BCF1010F38D14FF0020C80F85B
:101D800035C04FF0000CC0F854C0D0F800C08468D3
:101D9000056CC06DDCF80060402C26F48026CCF881
:101DA0000060CCF804300B4604BF13460A463F21BE
:101DB00001FA00F0CCF80830CCF80C20CEF808007E
:101DC000DCF8000040F01600CCF800002DB1DCF883
:101DD000000040F00800CCF80000DCF8000040F003
:101DE0000100CCF80000002070BD00BF002180F889
:101DF0003410022070BD0000B0B5044600F0ECF8CD
:101E0000054640F20000C2F200000078611C18BFD5
:101E1000044400BF00F0E0F8401BA042FAD3B0BD7C
:101E20002DE9F04F83B000F1200200F13E4741F66A
:101E30000045009207F1FF77C4F2020508224FEA3D
:101E4000B726A84208BF072200254FF000084FF030
:101E50000009072E38BF4FEAB72201920AE000BFFF
:101E600009F1010908F10208B9F1100F05F10405A3
:101E700000F0A2800F68012202FA09FE17EA0E0A9A
:101E8000EED0D1F804C003220CF003077E1E02FA44
:101E900008F4012E6FEA040B12D88468CE6804EAB5
:101EA0000B0406FA08F634438460446824EA0E06FC
:101EB000CCF3001404FA09F42643466004E000BFA2
:101EC000032F01D103271EE0C6688C6806EA0B06C3
:101ED00004FA08F42643022FC66014D16FF00302FF
:101EE000009E02EA590756F807C005F01C040F22AD
:101EF0000B69A2402CEA0202A3401A43F251D1F826
:101F000004C00CF00307026807FA08F302EA0B02A8
:101F10001A431CF4403F0260A2D0002243F644035F
:101F20000292C4F202031A6843F6004442F480426B
:101F30001A601A68C4F2010402F480420292029A02
:101F400029F003024FF6084C2244CFF6FF7C52F8EA
:101F50000C3005F00C070F26BE40B343019E06FA75
:101F600007F73B4342F80C30A2684B6842EA0A0785
:101F700043F60C4CDE0258BF22EA0A07A760C4F2FF
:101F8000010CDCF800209E0242EA0A0758BF22EA50
:101F90000A07CCF8007062689E0342EA0A0758BF3D
:101FA00022EA0A0767602268DB0342EA0A0758BF91
:101FB00022EA0A07276053E703B0BDE8F08F00006C
:101FC0000069084018BF012070470000002A08BFC0
:101FD00009048161704700004DF21C20C2F200002C
:101FE00000687047002804BF01207047F0B581B039
:101FF000044690F83D0028B9002084F83C002046B3
:1020000000F07CFA242084F83D002068016821F06B
:1020100001010160016841F400410160016821F49F
:102020000041016000F010FC636848F2A16CC0F24E
:10203000010C40F60011C0F23D0163453CBF48F27F
:102040008041C0F21E01884202D2012001B0F0BDE1
:102050004DF68361C4F21B31A0FB01122168970C7D
:10206000D1F804E04FF496762EF03F0545EA92450C
:102070004D60774348F638160D6AC0F24106A7FB5B
:10208000067625F03F07634538BF960C721C3A432D
:102090000A62CA6948F2A0664CF6FF77C0F20106F0
:1020A000B34222EA07020BD801385B00B0FBF3F021
:1020B00001306FF31F30042898BF04201BE000BFDD
:1020C000A768013857B119277B43B0FBF3F0013003
:1020D0006FF31F3070B100F5804007E003EB43035E
:1020E000B0FBF3F001306FF31F3018B100F5004082
:1020F00001E000BF01201043C8610868D4E907234C
:1021000020F0C000104318430860886848F2FF328E
:1021100004F10C0790438CCF18431043A6698860E4
:10212000C86820F0FF0038433043C860086840F0BA
:102130000100086000202021206484F83D10206305
:1021400084F83E0001B0F0BD2DE9F04784B0994617
:1021500016460F460446FFF73FFF94F83D1020292E
:1021600027D10546206800BF816989071CD5FFF784
:1021700033FF411B20681A29F6D381698907F3D5FB
:1021800000202021206384F83D1084F83E00206C5C
:1021900004F13C0A40F020002064022000218AF86B
:1021A000001004B0BDE8F087A2461AF83C1F0129D0
:1021B00004D1022004B0BDE8F08700BF01228AF8F4
:1021C00000200368DDE90D180C9ADB0703D10368D2
:1021D00043F001030360036823F4006303602220DB
:1021E00084F83D00402084F83E00002020646262B4
:1021F0006185608D394620850020CFF6FF70E06252
:10220000204632464B46CDE9008502F013F918B15D
:10221000012004B0BDE8F087208D08B3022813D058
:10222000012835D121680A6822F480620A60002200
:1022300003924A6903928A690392039A0A6842F4F4
:1022400000720A602CE000BF21680A6822F48062F4
:102250000A600A6842F400620A60002203921AE0EF
:1022600000200390206841690391816903910399DB
:10227000016841F400710160202084F83D000020D5
:1022800084F83E0000218AF8001004B0BDE8F08711
:102290000021039121684A69039289690391039996
:1022A0000427C0F201070CE010690870606A218DF4
:1022B00001306062481E2085618D0139618501040D
:1022C000DAD080B203280FD802284AD001282DD1B5
:1022D000204641462A4602F04BFB002898D1206850
:1022E000616A0069E1E700BF204641462A4602F0E4
:1022F0003FFB00287FF48CAF2068616A006908709A
:10230000606A2268411C208D616201382085638DDE
:10231000013B638553695B07D1D580B20328C3D1E4
:10232000106820F480601060BEE700BF2046394688
:1023300000224346009502F0C9F900287FF468AFF7
:102340002068616A026822F4806202600069087095
:10235000606A218D01306062481E2085608D0138E1
:1023600060852046394600224346009502F0AEF9CA
:1023700000287FF44DAF2068616A026842F4007261
:10238000026000690870606A2268411C6162218DE8
:1023900001392185618D013961851169417085E7B8
:1023A0002DE9F04383B0994616460F460446FFF7E1
:1023B00013FE94F83D10202924D10546206800BF63
:1023C000816989071AD5FFF707FE411B20681A2982
:1023D000F6D381698907F3D500202021206384F892
:1023E0003D1084F83E00216C41F02001216484F806
:1023F0003C00022003B0BDE8F08300BF94F83C101D
:10240000012903D1022003B0BDE8F083012284F842
:102410003C200368DDE90B180A9ADB0703D1036847
:1024200043F001030360036823F400630360212089
:1024300084F83D00402084F83E0000202064626261
:102440006185608D394620850020CFF6FF70E062FF
:10245000204632464B46CDE9008502F075F818B1AA
:10246000012003B0BDE8F083208D98B92046414695
:102470002A4602F0CDF888B3206C0428F0D12068F9
:10248000016841F400710160012003B0BDE8F083F0
:102490000004EBD0204641462A4602F0B1FA00285B
:1024A000EAD1616A2268084610F8013B1361238D66
:1024B0006062581E2085678D013F678557697F07D9
:1024C000E6D50704E4D048781061881C6062981E45
:1024D0002085618D01396185DAE700BF20680168D8
:1024E00041F400710160202084F83D00002084F850
:1024F0003E0084F83C0003B0BDE8F083B0B586B080
:1025000045F600010068C4F20001002488420594E9
:10251000CDE903440294019402D006B0B0BD00BFDF
:1025200043F630050094C4F20205286840F002002A
:102530002860286800F00200009000984FF4406086
:1025400001901220CDE9020403200490042005909C
:1025500001F5D63001A9FFF763FC0094286940F427
:1025600080002861286900F480000090009806B07F
:10257000B0BD000040F200004DF21C21C2F200008C
:10258000C2F2000100780A68104408607047000039
:1025900080B543F60040C4F20200016841F40071C6
:1025A0000160016841F480610160016841F480715B
:1025B0000160032000F086F8002000F005F800F02C
:1025C00027F8002080BD000070B540F20006C2F27E
:1025D000000640F2A4013278C2F200014FF47A738F
:1025E0000968B3FBF2F20446B1FBF2F1084600F0D1
:1025F0005FFB0F2C4FF0010508D838B94FF0FF30C2
:1026000021460022002500F031F87460284670BD94
:1026100082B0002043F640010190C4F202014A68F2
:1026200042F480424A604A6802F480420192019A70
:102630000090086840F080500860086800F0805002
:102640000090009802B07047002848BF704700F023
:102650001F01012202FA01F11C2202EAD0004EF20F
:102660000012CEF2000281507047000010B54EF605
:102670000C5CCEF2000CDCF80030C3F3022E8EF0BE
:102680000704042C28BF0424BEF103034FF0FF3ECF
:102690000EFA04F438BF0023A14399400EFA03F365
:1026A0009A43114300F00F0200F160430901043A1C
:1026B00003F564436244002848BF02F10C0319701B
:1026C00010BD00004EF60C51CEF200010A684FF624
:1026D000FF031A4060F30A2242F0806040F0FD7070
:1026E00008607047002804BF012070472DE9F041C1
:1026F00043F60808C4F202080446D8F8F8030D4669
:1027000000F00700884207D288F8F853D8F8F80399
:1027100000F00700A84277D12068810717D541074C
:1027200005D5D8F8001041F4E051C8F800100107B1
:1027300005D5D8F8001041F46041C8F80010D8F869
:102740000010A26821F0F0011143C8F80010C00782
:1027500040D1D8F8F80300F00700A84207D988F85C
:10276000F853D8F8F80300F00700A8424CD12068CD
:10277000410707D5D8F80010E26821F4E051114371
:10278000C8F80010000708D5D8F80000216920F427
:10279000604040EAC100C8F8000000F07DF8D8F8B9
:1027A000001047F60062C1F30311C0F60302515C4A
:1027B00040F2A40220FA01F140F20400C2F200004B
:1027C0000068C2F200021160FFF7FEFE0020BDE8C3
:1027D000F08100BF6068811E022907D258F8081CEA
:1027E00089015CBF0120BDE8F08111E0012807D11B
:1027F00058F8081C89035CBF0120BDE8F08107E0A0
:1028000058F8081C890703D40120BDE8F08100BFF7
:10281000D8F8001021F003010843C8F80000FFF7C2
:10282000DBFB064641F28837D8F80000616800F00B
:102830000C00B0EB810F8CD0FFF7CEFB801BB842B1
:10284000F2D90320BDE8F08140F2A40043F608016C
:10285000C2F20000C4F202010068096847F6106283
:10286000C1F38221C0F60302515CC84070470000EA
:1028700040F2A40043F60801C2F20000C4F20201D3
:102880000068096847F61062C1F34231C0F60302DE
:10289000515CC8407047000010B543F60404C4F210
:1028A0000204606800F00C0142F200400829C0F206
:1028B000F40007D0042918BF10BD41F20020C0F277
:1028C0007A0010BD216801F03F02216823684902A7
:1028D000C3F3881106D4A1FB00010023FDF750FDCE
:1028E00007E000BF41F20020C0F27A004843B0FB8D
:1028F000F2F021680222C1F3014102EB4101B0FB79
:10290000F1F010BD002804BF012070472DE9F0410F
:1029100082B00446007843F60006C007C4F20206FF
:102920000CD0B06800F00C00042840F081803068C2
:10293000800303D56068002800F068812078800754
:102940001BD5B06810F00C0F09D0B06800F00C0077
:10295000082840F087807068400200F1838030686A
:10296000800703D5E068012840F050813068216974
:1029700020F0F80040EAC10030602078000713D44E
:10298000207840072AD4A569002D00F03A81B0686C
:1029900000F00C00082840F0A580012D40F00E81C9
:1029A000012002B0BDE8F0816069002800F082805B
:1029B0000020C4F247200121C0F8801EFFF70CFB65
:1029C000054600BF706F8007DAD4FFF705FB401B98
:1029D0000228F7D9032002B0BDE8F081306C5FEA2D
:1029E000C0080AD400200190306C40F08050306460
:1029F000306C00F080500190019847F20007C4F25B
:102A000000073868C00547D4386840F480703860E3
:102A1000FFF7E2FA054600BF3868C0053CD4FFF76F
:102A2000DBFA401B0228F7D9032002B0BDE8F08191
:102A3000B06800F00C00082803D1706840023FF530
:102A400076AF61683068B1F5803F07D0B1F5A02F4F
:102A500040F09A8040F480203060306840F480304C
:102A600030609AE0E068002840F20000C4F247209D
:102A70005CD001210160FFF7AFFA0546306880079E
:102A80003FF574AFFFF7A8FA401B0228F6D90320E0
:102A900002B0BDE8F08100BFA168306F012905D008
:102AA000052955D140F004003067306F40F0010037
:102AB000306756E00020C4F247200021C0F8801E95
:102AC000FFF78AFA054600BF706F80077FF558AFA1
:102AD000FFF782FA401B0228F6D9032002B0BDE8B6
:102AE000F08100BF0027C4F2472700203866FFF7B7
:102AF00073FA022D05460DD13068800140F18A80BD
:102B0000FFF76AFA401B02284FF00300F4D902B025
:102B1000BDE8F0813068800173D5FFF75DFA401B96
:102B200002284FF00300F5D9F1E700BF0021016052
:102B3000FFF752FA054600BF306880077FF51DAFEA
:102B4000FFF74AFA401B02284FF00300F4D9DEE7F2
:102B500020F001003067306F002920F0040030675A
:102B60007AD0FFF739FA054641F28837306F80078F
:102B700000F18480FFF730FA401BB842F6D90320F9
:102B800002B0BDE8F08100BF20F4803030603068D2
:102B9000002920F4802030607AD0FFF71DFA054626
:102BA000306880033FF5CAAEFFF716FA401B642871
:102BB000F6D9032002B0BDE8F08100BF7068E1697A
:102BC00000F480028A4221D1216A00F03F028A4249
:102BD0001CD147F6C071626A0140B1EB821F15D16A
:102BE000A16A4FF6FF73C903994300F44032A1F57F
:102BF00080318A420AD1E16A00F07060B0EB016F67
:102C000004D1002002B0BDE8F08100BF012002B075
:102C1000BDE8F08104F11C052FCD084340EA821085
:102C2000D9034FF6FF729143A1F5803140EA056068
:102C30000843706001203866FFF7CEF9044600BFF4
:102C400030688001DDD4FFF7C7F9001B02284FF080
:102C50000300F5D95BE700BFFFF7BEF9054641F277
:102C6000883700BF306F800708D5FFF7B5F9401BE4
:102C7000B8424FF00300F5D949E700BFB8F1000FA3
:102C80003FF581AE306C20F0805030647BE600BFB1
:102C9000FFF7A2F9054600BF306880037FF54EAE0E
:102CA000FFF79AF9401B64284FF00300F4D92EE790
:102CB000411E0020B0EB116F1CBF012070474EF287
:102CC0001002CEF2000251604EF62351CEF2000106
:102CD000F0230B700721906011607047704700006F
:102CE0007047000090F83C20012A04BF0220704782
:102CF000B0B501F108053CCDD1E900CE23F47C53F9
:102D000022F470521A432EF4F0431A432CF4E04399
:102D10001A4324F4C0431A432A43C96922F4804267
:102D2000036811435964002180F83C100020B0BDB5
:102D300090F83C20012A4FF0020254D010B580F8E0
:102D40003D200268D2F804E0D2F808C00C682EF0EA
:102D50007003234341F2FF74C4F20004A2425360A3
:102D60000EDC40F2FF73C4F200039A4216DCB2F1AB
:102D7000804F2BD040F20043C4F2000324E000BF98
:102D800040F2FF33C4F201039A4213DC41F6000320
:102D9000C4F200039A4219D0002313E040F6000366
:102DA000C4F200039A4211D040F60043C4F200037B
:102DB0000AE000BF44F20003C4F201039A4205D0C6
:102DC00040F20043C4F201039A4204D149682CF056
:102DD0008003194391600121002280F83D1080F8A2
:102DE0003C20BDE81040104670470000002804BF9A
:102DF0000120704710B5044690F83D0028B9002026
:102E000084F83C00204600F01FF8022084F83D00C2
:102E10002068211D03F006F9012084F8460084F89B
:102E20003E0084F83F0084F8400084F8410084F8B4
:102E3000420084F8430084F8440084F8450084F894
:102E40003D00002010BD000080B582B00068B0F1E8
:102E5000804F15D00021C4F2010188420ED100201C
:102E6000019043F64000C4F20200416841F00101C4
:102E70004160406800F001000190019802B080BDFF
:102E80000020009043F64000C4F2020001680022D6
:102E900041F0010101600068002100F00100009094
:102EA00000981C20FFF7E2FB1C2002B0BDE8804028
:102EB000FFF7CABB90F83D1001291CBF01207047E5
:102EC000022180F83D10006841F2FF72C168C4F22F
:102ED0000002904241F00101C1600DDC40F2FF713F
:102EE000C4F20001884215DCB0F1804F2AD040F2D4
:102EF0000041C4F2000123E040F2FF31C4F20101BD
:102F0000884213DC41F60001C4F20001884219D066
:102F1000002113E040F60001C4F20001884211D004
:102F200040F60041C4F200010AE000BF44F2000193
:102F3000C4F20101884205D040F20041C4F201010F
:102F4000884206D1816801F00701062904BF0020EC
:102F50007047016841F001010160002070470000E6
:102F600090F83C20012A4FF002026CD080B580F826
:102F70003D20D0F800C04FF67772DCF8083023EA25
:102F80000202CCF808200B684F2B29DC1F2B45DDF3
:102F9000202B46D0302B44D0402B40F0AF80D1F8CE
:102FA00004E0C968DCF82030DCF8202022F00102BF
:102FB000CCF82020DCF8182022F0F00242EA0111BF
:102FC00023F00A0242EA0E02CCF81810CCF82020B6
:102FD000DCF8081041F0470121F0300128E000BF83
:102FE0006F2B33DDB3F5005F74D0B3F5805F21D074
:102FF000702B40F08380D1E901E3C968DCF8082038
:1030000043EA0E0322F47F4243EA01211143CCF844
:103010000810DCF8081041F0770109E00BB1102B23
:103020006CD1DCF8081021F07001194341F0070160
:10303000CCF808100022012180F83D10002180F812
:103040003C10BDE880401046704700BF502B21D097
:10305000602B53D1D1F804E0C968DCF82030DCF8EB
:10306000202022F01002CCF82020DCF8182022F4D6
:10307000704242EA013123F0A00242EA0E12CCF87B
:103080001810CCF82020DCF8081041F0670121F07E
:103090001001CDE7D1F804E0C968DCF82030DCF895
:1030A000202022F00102CCF82020DCF8182022F0A9
:1030B000F00242EA011123F00A0242EA0E02CCF8C1
:1030C0001810CCF82020DCF8081041F0570121F04E
:1030D0002001ADE7D1E901E3C968DCF8082043EA43
:1030E0000E0322F47F4243EA01211143CCF8081079
:1030F000DCF8081041F480419AE700BF01229AE70A
:10310000002804BF012070472DE9F047044690F8DD
:103110003D000D4628B9002084F83C00204600F010
:1031200049F8022084F83D00206844F207028168D3
:1031300091438160211D02F075FF20684FF6FF78F2
:1031400081688269D0F820C0D5E9003ED5E9026ADD
:1031500043EA0109AB6922EA080246EA03234FF673
:10316000FC46B343D5E9076742EA0A0229691A43D4
:1031700042EA062242EA01112CF0AA026B6942EAF5
:103180000E0241EA073142EA0312C0F80890816159
:103190000262012084F8460084F83E0084F83F0073
:1031A00084F8420084F8430084F83D000020BDE824
:1031B000F087000080B586B0006840F60002C4F2D7
:1031C000000200219042CDE90411CDE902110191E4
:1031D00024D040F20041C4F20001884248D10020CE
:1031E00043F630010090C4F202010A6942F0020283
:1031F0000A610A6902F002020092009A00900868CF
:1032000040F0020008600868302100F002000090E1
:10321000009840F20040C4F202001FE043F6300084
:103220000091C4F20200026942F0040202610269E4
:1032300002F004020092009A0091016841F0080136
:10324000016000684FF4405100F0080000900098C1
:1032500040F20040C4F2020000F50060019102213A
:1032600002910022059101A9CDE90322FEF7D8FDC4
:1032700006B080BD80B590F83E2090F83F3090F8C1
:1032800042E090F843C004290AD0B9B9012A4FF0AE
:10329000010208BFBEF1010F34D0104680BD00BF4F
:1032A000012B4FF0010208BFBCF1010FF5D1022143
:1032B00080F83F1080F8431000681EE0012A4FF0AC
:1032C000010208BF012BE8D1BEF1010FE5D1BCF12D
:1032D000010FE2D1022280F83E2080F83F2080F8E2
:1032E000422080F8432091B10068016A21F0010179
:1032F0000162016A41F00101016210216FF01002C8
:1033000009E000BF022180F83E1080F842100068FA
:1033100001216FF00102036A1A400262026A11433E
:1033200001620168002241F001010160104680BD88
:103330007047000070B504460068C5680669B107AB
:1033400016D515F0020113D06FF0020101610121C1
:1033500021778069800703D02046FFF7E9FF05E069
:10336000204600F08FF8204600F0CEF900202077AC
:10337000700719D515F0040016D020686FF004010D
:10338000016102212177806910F4407F04D020463A
:10339000FFF7CEFF06E000BF204600F073F820469E
:1033A00000F0B2F900202077300717D515F008009B
:1033B00014D020686FF00801016104212177C069F1
:1033C000800703D02046FFF7B3FF05E0204600F05A
:1033D00059F8204600F098F900202077F00619D51A
:1033E00015F0100016D020686FF01001016108215F
:1033F0002177C06910F4407F04D02046FFF798FF82
:1034000006E000BF204600F03DF8204600F07CF9C1
:1034100000202077F00718BF15F0010002D1300618
:1034200009D412E020686FF001010161204600F02C
:10343000F5F9300609D515F0800006D020686FF048
:10344000800101612046FFF749FC700609D515F09F
:10345000400006D020686FF040010161204600F076
:103460000DFAB00658BF70BD15F0200008D02168D5
:103470006FF0200220460A61BDE87040FFF730BCC3
:1034800070BD00007047000090F83C30012B04BF75
:10349000022070474FEAB202032A00F2FF802DE9B2
:1034A000F043DFE802F003B13F7F00BF036840F262
:1034B00000461C6A1A6A24F0020422F001021A6211
:1034C0001A46D3F804C052F818EF8F6843F48065A9
:1034D000C4F20106B54244EA070405D1CF6824F0DE
:1034E0000C0427F004073C430F68B54206D1D1E92C
:1034F00005582CF440762E4346EA080C2EF073064D
:103500003743C3F804C09F614F6809695F631C6259
:103510009F6947F008079F619F6927F004079F6133
:10352000B1E000BF036840F200481C6A1A6A24F444
:10353000007422F480721A621A46D3F804C052F85A
:103540001CEF8F6843F48065C4F20108454544EAE6
:10355000072408D1CF6840F2FF463F0224F44064BC
:1035600027EA06063443D1F80090454506D1D1E953
:1035700005562CF440572E4347EA061C2EF07307DD
:1035800047EA0907C3F804C0DF614F680969DF63D0
:103590001C62DF6947F00807DF61DF6927F0040775
:1035A000DF6170E0036840F20045D3F820C01A6A7A
:1035B00043F4806722F480521A621A465C6852F81B
:1035C0001C8FD1F800E08E68C4F20105AF4204D12F
:1035D0004D6924F4804444EA85142CF4005747EAEA
:1035E000063728F4E64646EA0E265C60DE614E6841
:1035F00009691E641F62DF6947F40067DF61DF69E4
:1036000027F48067DF613DE0036840F200481C6AF0
:103610001A6A24F0200422F010021A621A46D3F823
:1036200004C052F818EF8F6843F48065C4F20108B3
:10363000454544EA071407D1CF686FF0400624F0EF
:10364000C00406EA07163443D1F80090454506D178
:10365000D1E905562CF440672E4347EA860C2EF438
:10366000E64747EA0927C3F804C09F614F68096924
:103670009F631C629F6947F400679F619F6927F4FD
:1036800080679F6109021368194311600021BDE83A
:10369000F043002280F83C200846704701210022B8
:1036A00080F83C2008467047002804BF012070477E
:1036B00010B5044690F83D0028B9002084F83C007D
:1036C000204600F01FF8022084F83D002068211DEC
:1036D00002F0A8FC012084F8460084F83E0084F83B
:1036E0003F0084F8400084F8410084F8420084F8E8
:1036F000430084F8440084F8450084F83D0000202D
:1037000010BD00007047000070470000C1B10429DF
:1037100008D0082914BF41224022825C012A05D02A
:1037200016E000BF3F22825C012A11D10222082943
:1037300010D0042914BF80F8412080F83F200BE00E
:1037400090F83E20012A03D1022280F83E2003E0B7
:103750000120704780F84020006801F01F0101221D
:10376000036A02FA01F123EA01020262026A1143CA
:1037700041F2FF72C4F20002904201620CDC40F29E
:10378000FF71C4F20001884214DCB0F1804F37D0E1
:1037900040F2004116E000BF40F2FF31C4F20101E7
:1037A000884215DC41F60001C4F20001884227D0AE
:1037B000002115E040F60001C4F2000188421FD04C
:1037C00040F60041C4F20001884219D01FE000BF5A
:1037D00044F20001C4F20101884211D040F20041DC
:1037E000C4F20101884212D1416C40F2004340F41E
:1037F0008062C4F2010341F400419A42416406D15F
:10380000816801F00701062904BF002070470168A4
:1038100041F00101016000207047000010B540F642
:10382000D421C2F2000100680968884218BF10BDA7
:1038300040F26034C2F2000420780130C1B20A299B
:10384000207003D300202070FEF778F860780130F4
:10385000C1B20A29607003D30020607001F068FED5
:10386000A0780130C1B20A29A07005D30020A07051
:10387000BDE8104002F0DABA10BD00007047000049
:1038800070B582B090F84250202D0BD113460A46F5
:103890000146002A4FF0010018BF002B06D102B0EC
:1038A00070BD00BF022002B070BD00BF08630026DB
:1038B00022204E638A628B854E6481F842000C6838
:1038C0000D46C86B46F2E92C46F24941C0F6000CA1
:1038D000C0F60001C0E90FC146F26D11C0F600014B
:1038E000C0E91316211DFEF735FAE8B3102068640D
:1038F0002020294685F8420001200A6B012A40F069
:10390000B380002200920A68136800935268009204
:10391000009A00BF0A6852E8032F0B6842F01002B9
:1039200043E80326002EBAD00A6852E8032F0B683A
:1039300042F0100243E80326002EB0D00A6852E895
:10394000032F0B6842F0100243E80326002EA6D096
:103950000A6852E8032F0B6842F0100243E803267E
:10396000002ED7D19BE700BF019628682946026840
:103970000192406801900198286928B3086850E8CE
:10398000030F0A6840F4807042E80303E3B108685B
:1039900050E8030F0A6840F4807042E803039BB1CB
:1039A000086850E8030F0A6840F4807042E8030397
:1039B00053B1086850E8030F0A6840F4807042E889
:1039C0000303002BDAD100BF086850E8050F0A682E
:1039D00040F0010042E80503BBB3086850E8050F5A
:1039E0000A6840F0010042E8050373B3086850E834
:1039F000050F0A6840F0010042E805032BB3086890
:103A000050E8050F0A6840F0010042E80503002B6A
:103A1000DAD11AE0086850E8050F0A6840F0400063
:103A200042E80503DBB1086850E8050F0A6840F07A
:103A3000400042E8050393B1086850E8050F0A68A2
:103A400040F0400042E805034BB1086850E8050F1C
:103A50000A6840F0400042E80503002BDAD100205C
:103A60000A6B012A3FF44DAF012002B070BD000087
:103A7000026841F20003C4F201039A4218BF704782
:103A8000B0B50C4600F024F84CF69C554CF610509E
:103A9000C2F20005C2F20000294622462EF098FB31
:103AA00028468021FCF76AFF40F6AC30C2F20000E5
:103AB00029468022FFF7E4FE40F6D810C2F200004B
:103AC0000068016821F008010160BDE8B04070475E
:103AD00010B504460068416994F84120212A56D166
:103AE00011F0800153D000BF206850E8050F216815
:103AF00020F0800041E80502DAB1206850E8050FA7
:103B0000216820F0800041E8050292B1206850E869
:103B1000050F216820F0800041E805024AB12068C5
:103B200050E8050F216820F0800041E80502002AD6
:103B3000DAD1A06B002818BFFDF71EFF206850E8FF
:103B4000030F216820F0C00041E80302DAB12068C9
:103B500050E8030F216820F0C00041E8030292B151
:103B6000206850E8030F216820F0C00041E80302FC
:103B70004AB1206850E8030F216820F0C00041E8F6
:103B80000302002ADAD1202084F84100206840692D
:103B900094F84210222940F0A78010F0400000F075
:103BA000A38000BF206850E8050F216820F0400086
:103BB00041E80502DAB1206850E8050F216820F0DD
:103BC000400041E8050292B1206850E8050F2168E5
:103BD00020F0400041E805024AB1206850E8050F96
:103BE000216820F0400041E80502002ADAD1E06BAC
:103BF000002818BFFDF7C0FE206850E8030F2168B9
:103C000020F4907041E80302BAB3206850E8030F33
:103C1000216820F4907041E8030272B3206850E8F4
:103C2000030F216820F4907041E803022AB3206852
:103C300050E8030F216820F4907041E80302002A45
:103C4000DAD11AE0206850E8050F216820F0010061
:103C500041E80502DAB1206850E8050F216820F03C
:103C6000010041E8050292B1206850E8050F216883
:103C700020F0010041E805024AB1206850E8050F34
:103C8000216820F0010041E80502002ADAD1206B0A
:103C9000012824D1206850E8030F216820F010008B
:103CA00041E80302DAB1206850E8030F216820F0F0
:103CB000100041E8030292B1206850E8030F216828
:103CC00020F0100041E803024AB1206850E8030FD9
:103CD000216820F0100041E80302002ADAD12020F8
:103CE00084F8420000202063002010BD70470000CF
:103CF000B0B582B001680A68CC684B6902F02F0544
:103D0000202D04F0200505D125B102B0BDE8B0405A
:103D100002F0A6BB5FEA027C1EBF03F0010E04F4B2
:103D2000907313EB0E0341D1036BD50618D5012B0D
:103D300016D114F0100313D0002201920A680192E8
:103D40004A680192019A496949064BD4818DC28D16
:103D5000C38D002B18BF914240F0068202B0B0BD67
:103D600013062DD514F080032AD090F84120212A83
:103D7000F4D18268B2F5805F03D10269002A00F0B5
:103D80007982026A531C036212784A60C28C013A3B
:103D90001304C284E2D1C86820F08000C860C868FB
:103DA00040F04000C86002B0B0BD00BFD30718BFEC
:103DB00014F4807340F0E280530700F1E580EAE0FC
:103DC0005206CBD514F04002C8D0CA6822F0400297
:103DD000CA60202180F8411002B0BDE8B04000F078
:103DE00007BB00BFC26B11684B68858D99B2002973
:103DF00000F0B480A94280F0B180C385D169B1F5EB
:103E0000807F00F0A080016851E8031F026821F460
:103E1000807142E80313DBB1016851E8031F0268B7
:103E200021F4807142E8031393B1016851E8031F44
:103E3000026821F4807142E803134BB1016851E834
:103E4000031F026821F4807142E80313002BDAD1CA
:103E5000016851E8051F026821F0010142E80513DD
:103E6000BBB3016851E8051F026821F0010142E877
:103E7000051373B3016851E8051F026821F00101C1
:103E800042E805132BB3016851E8051F026821F0D1
:103E9000010142E80513002BDAD11AE0016851E86C
:103EA000051F026821F0400142E80513DBB10168FB
:103EB00051E8051F026821F0400142E8051393B163
:103EC000016851E8051F026821F0400142E805132E
:103ED0004BB1016851E8051F026821F0400142E83A
:103EE0000513002BDAD1202180F842100021016354
:103EF000016851E8031F026821F0100142E8031332
:103F0000DBB1016851E8031F026821F0100142E8AB
:103F1000031393B1016851E8031F026821F01001F7
:103F200042E803134BB1016851E8031F026821F016
:103F3000100142E80313002BDAD1C16B0446084696
:103F4000FDF71AFD204602214163818DC28D891A39
:103F500089B202B0BDE8B040FFF78ABD8D427FF460
:103F6000FDAED269B2F5807F7FF4F8AE02224263E3
:103F700002B0BDE8B040FFF77BBD00BF436C43F02B
:103F800001034364530706D5BEF1000F03D0436C11
:103F900043F002034364930706D5BEF1000F03D03C
:103FA000436C43F004034364BCF1000F06D55EEAA2
:103FB000050303D0436C43F008034364436C002BB8
:103FC0003FF4CCAE920605D525B1044602F048FA7E
:103FD000216820464969426C01F0400102F0080264
:103FE000891800F0B98000BF016851E8031F02681A
:103FF00021F4907142E80313BBB3016851E8031F39
:10400000026821F4907142E8031373B3016851E828
:10401000031F026821F4907142E803132BB3016877
:1040200051E8031F026821F4907142E80313002B4A
:10403000DAD11AE0016851E8051F026821F0010198
:1040400042E80513DBB1016851E8051F026821F061
:10405000010142E8051393B1016851E8051F0268A8
:1040600021F0010142E805134BB1016851E8051F39
:10407000026821F0010142E80513002BDAD1016B3F
:10408000012924D1016851E8031F026821F01001C1
:1040900042E80313DBB1016851E8031F026821F015
:1040A000100142E8031393B1016851E8031F02684D
:1040B00021F0100142E803134BB1016851E8031FDE
:1040C000026821F0100142E80313002BDAD120210D
:1040D00080F842100021016301684969490640F1F6
:1040E000C380016851E8051F026821F0400142E8E1
:1040F0000513DBB1016851E8051F026821F040019A
:1041000042E8051393B1016851E8051F026821F0E8
:10411000400142E805134BB1016851E8051F0268F0
:1041200021F0400142E80513002BDAD1C16B0029D0
:1041300000F09A8046F26112C0F60002044608467A
:104140000A65FDF761FC00283FF408AEE06B016DE5
:1041500002B0BDE8B04008470446FFF7C7FD0020A5
:10416000606402B0B0BD00BF891A00BF026852E8A7
:10417000032F036822F4907243E80325BDB302685D
:1041800052E8032F036822F4907243E8032575B3C5
:10419000026852E8032F036822F4907243E8032573
:1041A0002DB3026852E8032F036822F4907243E8AB
:1041B0000325002DDAD11AE0026852E8052F0368C2
:1041C00022F0010243E80525DDB1026852E8052F1F
:1041D000036822F0010243E8052595B1026852E820
:1041E000052F036822F0010243E805254DB102685E
:1041F00052E8052F036822F0010243E80525002D4F
:10420000DAD1202280F8422000220263026852E8BC
:10421000032F036822F0100243E80325DDB1026892
:1042200052E8032F036822F0100243E8032595B1FA
:10423000026852E8032F036822F0100243E80325C6
:104240004DB1026852E8032F036822F0100243E8E0
:104250000325002DDAD1022289B2426302B0BDE803
:10426000B040FFF705BC00BF02B0BDE8B040FFF7AB
:104270003DBD00BF026A32F8023B6FF35F234B6023
:10428000026283E5002804BF0120704710B5044690
:1042900090F8410028B9002084F84000204600F042
:1042A00021F8242084F841002068C16821F40051DD
:1042B000C160204602F054F92068016921F4904160
:1042C0000161416921F02A014161C16841F4005155
:1042D000C16000202021606484F8411084F84210FD
:1042E000606310BD70B586B0044641F200002168DD
:1042F000C4F20100002681420596CDE903660296CC
:10430000019601D006B070BD43F630010096C4F2AC
:1043100002014A6900F5704042F010024A614A69A0
:1043200002F010020092009A00960A6842F0010220
:104330000A60096801F00101009100994FF4C06121
:1043400001910221CDE90216032104910721059173
:1043500001A9FDF765FD40F6D81546F24040C2F2CE
:104360000005C4F202004FF000614FF4806285E85E
:1043700043002846C5E90362C5E90566C5E9076645
:104380006E62FDF735FC002818BFFDF7E5FA252021
:1043900000210022E563AC63FEF768F92520FEF7F3
:1043A00053F906B070BD0000704700007047000070
:1043B00090F84130202B07D100294FF0010318BF9E
:1043C000002A05D11846704702231846704700BFDF
:1043D0000162002321218284C284436480F8411059
:1043E0000068C16841F08001C16018467047000054
:1043F000B0B582B040F27025C2F200050021284617
:1044000000F8081B01A92DF0A1FE70B1012129704F
:104410006A68019984B210462246FFF7C9FF05F188
:104420000800002122462DF02DFE02B0B0BD000094
:10443000FEE700002DE9F04782B0044600689A4686
:104440000B9D0A9E0368914643F4806202600268F5
:104450000F4642F48071016020464FF001110022A6
:104460003346009500F032F950B120680068C0056D
:1044700044BF4FF400702064032002B0BDE8F08711
:1044800040F202082068C0F2010807F0FE07076149
:104490002046414632462B4600F0FEF920B101206D
:1044A00002B0BDE8F08700BF0020019020682A46D6
:1044B000416901918069314601900198204600F0E0
:1044C0009FFAB0B92068BAF1010F09D04FEA19215B
:1044D0000161204631462A4600F092FA48B9206828
:1044E0005FFA89F10161204631462A4600F088FAD8
:1044F00060B1206C0428D2D12068016841F40071B9
:104500000160012002B0BDE8F08700BF20680022F2
:104510000168334641F48071016020464FF001117B
:10452000009500F0D3F800289FD147F0010C2768D0
:104530002046414632462B46C7F810C002B0BDE8BF
:10454000F04700F0A9B900002DE9F04383B004461C
:1045500000680F4601680A9D0B9E41F480719946E0
:104560009046016020464FF0011100222B46009634
:1045700000F0ACF850B120680068C00544BF4FF4AB
:1045800000702064032003B0BDE8F083206807F0CA
:10459000FE0101610221C0F2010120462A46334694
:1045A00000F07AF920B1012003B0BDE8F08300BF2C
:1045B00000200290206832464169029180692946B4
:1045C00002900298204600F01BFA58B1206C042893
:1045D000E9D12068016841F400710160012003B055
:1045E000BDE8F0832068B9F1010F0AD04FEA182125
:1045F000016120462946324600F002FA0028E5D142
:1046000020685FFA88F10161002003B0BDE8F08303
:1046100070B50368044653F8140F400711D40E46D2
:10462000481C29D086BB00BF1868400527D4FDF779
:10463000D3FC236853F8140F400737D51868400798
:10464000F2D5002070BD00BF18684007F9D4186883
:10465000400514D418684007F3D4186840050ED4F8
:1046600018684007EDD41868400508D4186840075A
:104670004FF0000048BF70BD18684005E4D56FF4E6
:1046800080601860042012E0154603E053F8140F10
:104690004007D6D418684005F1D4FDF79DFC401BB7
:1046A0002368B042F2D958694007EFD42020002196
:1046B0002022216384F83D2084F83E10226C1043B0
:1046C0002064012084F83C1070BD00002DE9F04109
:1046D000054600681E46144601F47F0201338FB27E
:1046E00042D0DDF81880B2F5803F40F08780406905
:1046F0003840C01BB0FA80F04009A04240F0C880AA
:104700004EB924E040693840C01BB0FA80F040093F
:10471000A04240F0BD80FDF75FFCA0EB08012868D7
:10472000B142EFD941693940C91BB1FA81F1490958
:10473000A142E7D19BE000BF40693840C01BB0FAFE
:1047400080F04009A0424FF0000040F0A280FDF749
:1047500043FC286841693940C91BB1FA81F1490914
:10476000A142E9D183E000BFB2F5803F24D100BF70
:1047700041693940C91BB1FA81F14909A14240F0B0
:10478000878041693940C91BB1FA81F14909A142C9
:1047900040F07E8041693940C91BB1FA81F1490975
:1047A000A14275D141693940C91BB1FA81F149096A
:1047B000A142DDD06CE000BF81693940C91BB1FA6C
:1047C00081F14909A14263D181693940C91BB1FA1C
:1047D00081F14909A1425BD181693940C91BB1FA14
:1047E00081F14909A14253D181693940C91BB1FA0C
:1047F00081F14909A142DFD04AE000BF8069384019
:10480000C01BB0FA80F04009A04241D146B923E074
:1048100080693840C01BB0FA80F04009A04237D10F
:10482000FDF7DAFBA0EB08012868B142F0D98169F5
:104830003940C91BB1FA81F14909A142E8D116E01A
:1048400080693840C01BB0FA80F04009A0424FF0A8
:10485000000018BFBDE8F081FDF7BEFB2868816944
:104860003940C91BB1FA81F14909A142E8D10020C0
:104870002021286385F83D1085F83E00296C41F021
:104880002001296485F83C000120BDE8F08100BFCB
:104890000020BDE8F0810000F0B581B0044600685A
:1048A0001D4643698FB203EA0701B94202D10020D5
:1048B00001B0F0BD4169164601323CD0490512D421
:1048C0007EB300BFFDF788FB411B2068B14203D9CE
:1048D00041693940B9422BD141693940B942E6D0EA
:1048E00041694905EED5016841F4007101606FF43A
:1048F00080614161042000212022216384F83D2051
:1049000084F83E10226C1043206484F83C1001208F
:1049100001B0F0BD41693940B942C8D0416949058B
:10492000E1D4FDF759FB206841693940B942F1D023
:104930002020E0E741694905D5D441693940B942B1
:10494000B5D041694905CED441693940B942AED0AC
:1049500041694905C7D441693940B942A7D0416985
:104960004905C0D441693940B942E3D19FE700000D
:1049700070B504460068154650F8143F5A063DD4F9
:104980000E4629B926E000BF50F8141F490635D459
:104990000168C90621D4FDF71FFB411B2068B14205
:1049A000F2D941694906EFD400202021206384F820
:1049B0003D1084F83E00206C40F0200018E000BF5D
:1049C000FDF70AFB206850F8141F4906ECD5016872
:1049D000490613D40168C906F2D56FF010010160D1
:1049E00000202021206384F83D1084F83E00206CD4
:1049F0002064002084F83C00012070BD002070BDC0
:104A000070B50368044653F8140F000611D40E461F
:104A1000481C29D086BB00BF1868400527D4FDF785
:104A2000DBFA236853F8140F000637D51868000620
:104A3000F2D5002070BD00BF18680006F9D41868D0
:104A4000400514D418680006F3D4186840050ED445
:104A500018680006EDD41868400508D418680006E8
:104A60004FF0000048BF70BD18684005E4D56FF4F2
:104A700080601860042012E0154603E053F8140F1C
:104A80000006D6D418684005F1D4FDF7A5FA401BFE
:104A90002368B042F2D958690006EFD420200021E3
:104AA0002022216384F83D2084F83E10226C1043BC
:104AB0002064012084F83C1070BD000080B584B0F3
:104AC00001200DF10F01CDE9001040F638204FF420
:104AD0007A7CC2F200009821DD220123CDF808C0C3
:104AE000FDF732FB9DF80F0004B080BDFCF794BECB
:104AF00080B5FDF771FABDE8804009F01FB80000ED
:104B000010B500F039FE1DF0F7F826F089F910F025
:104B100039FC10F08BFC1DF0FDFA07A104461EF0D5
:104B20003FFD204609210022002321F025F8BDE8A1
:104B300010402AF03BB800BF4C56474C204F4B2149
:104B4000000000002AF032B8F0B581B061B183787E
:104B5000C67842789B00017843EAC60343EA4202E2
:104B600042EA010501E000BF002540F26456C2F2AE
:104B700000063178EAB28A422AD001780024B1FADC
:104B800081F1C4F202044A09074620464FF400614D
:104B9000FDF71CFA78784FF48051B0FA80F04209A2
:104BA0002046FDF713FAB87804F50064B0FA80F0F7
:104BB000420920464FF40071FDF708FAF8784FF4E7
:104BC0008071B0FA80F042092046FDF7FFF9357098
:104BD00001B0F0BD40F6F830C2F200000021FFF74E
:104BE000B3BF000040F6F830C2F200000121FFF729
:104BF000ABBF000080B582B00020019043F63000CA
:104C0000C4F202000168002241F4800101600068E2
:104C1000002100F48000019001983A20FDF726FD64
:104C20003A2002B0BDE88040FDF70EBD2DE9F04707
:104C300086B0002743F630000597CDE90377CDE92C
:104C400001770097C4F202000168002441F01001CE
:104C500001600168C4F2020401F0100100910099A2
:104C60000097016804F5006641F0040101600168E5
:104C7000012201F0040100910099009701684FF4AE
:104C8000407941F08001016001684FF0010801F0B6
:104C90008001009100990097016841F002010160D4
:104CA000016801F00201009100990097016841F04C
:104CB00008010160016801F0080100910099009766
:104CC000016841F00101016000684FF4407100F09B
:104CD0000100009000983046FDF778F920464FF427
:104CE000C05101224FF4C05AFDF770F90F2001ADF9
:104CF000CDE9010704F5805029460397FDF790F8A8
:104D000030462946CDE90198CDE90377FDF788F8CB
:104D100020462946CDE901A8CDE90377FDF780F8C3
:104D2000C02001901220CDE9020703200490042046
:104D3000059004F580602946FDF772F806B0BDE8DD
:104D4000F087000080B540F6382045F60001C2F239
:104D50000000C4F2000148F2A06200234FF4804C2E
:104D6000C0F2010280E80E00C0E9033CC0E905334F
:104D7000C0E90733FDF736F9002808BF80BDBDE85C
:104D80008040FCF7E9BD000070B59CB0002540F6FE
:104D90008C20C4F201050021C2F20000072240F27B
:104DA000E7331591CDE913111191CDE90F11CDE93B
:104DB0000D11CDE90B11CDE90911CDE90711CDE9AF
:104DC0000511CDE90311CDE90111C0E90052C0E997
:104DD0000213C0E904118161FEF708F8002818BF2A
:104DE000FCF7BAFD4FF48050129040F68C20C2F2CE
:104DF000000012A9FEF7B4F8002818BFFCF7ACFDBC
:104E000040F68C20C2F20000FEF74EFC002818BFCE
:104E1000FCF7A2FD40F68C200024C2F2000010A98D
:104E2000CDE91044FDF784FF002818BFFCF794FD7E
:104E30006020CDE9090440F68C20C2F2000009A9E7
:104E40000022CDE90B44CDE90D440F94FEF71CFB85
:104E5000002818BFFCF780FD40F68C20C2F200004D
:104E600009A90422FEF710FB002818BFFCF774FD07
:104E700040F68C20C2F2000009A90822FEF704FBCC
:104E8000002818BFFCF768FD40F68C20C2F2000035
:104E900009A90C22FEF7F8FA002818BFFCF75CFD00
:104EA00040F68C244FF40050C2F200040026069015
:104EB00001A920460596CDE90366CDE9016608966D
:104EC000FDF710FF002818BFFCF746FD20681B9671
:104ED000A842CDE919661896179601D01CB070BD8E
:104EE000002043F630011690C4F202010A6842F035
:104EF00010020A60096801F01001169116994FF42A
:104F0000D44117910221CDE918101A9001201B906D
:104F100005F5883017A9FCF783FF1CB070BD0000B1
:104F200080B586B040F6D4200021C2F200004FF0D8
:104F30008042532340F2E73C0591CDE90311CDE9CE
:104F40000011C0E90023C0E9021C01618161FDF785
:104F50004DFF002818BFFCF7FFFC4FF48050029073
:104F600040F6D420C2F2000002A9FDF7F9FF0028A4
:104F700018BFFCF7F1FC40F6D420C2F200006946ED
:104F8000FDF7D6FE002818BFFCF7E6FC06B080BD92
:104F900080B58CB040F61C3040F200420021C2F2D5
:104FA0000000C4F200024FF6FF73C0E900210322A3
:104FB000C0E90213CDE9032101220423CDE9001148
:104FC00001618161CDE90521CDE90731CDE90921F3
:104FD00003A90B93FEF794F8002818BFFCF7BCFC5C
:104FE00040F61C30C2F200006946FDF7A1FE002821
:104FF00018BFFCF7B1FC0CB080BD000080B58CB0D0
:1050000040F6643040F600020021C2F20000C4F213
:1050100000024FF6FF73C0E900210322C0E902132A
:10502000CDE9032101220423CDE900110161816151
:10503000CDE90521CDE90731CDE9092103A90B937C
:10504000FEF75EF8002818BFFCF786FC40F66430D7
:10505000C2F200006946FDF76BFE002818BFFCF79E
:105060007BFC0CB080BD000080B540F6AC3041F256
:105070000001C2F20000C4F2010100234FF00C0C49
:105080004FF4E13280E80E00C0E90333C0E905C304
:10509000C361FFF7F7F8002808BF80BDBDE8804076
:1050A000FCF75ABCFEE7000040F20410C2F2000018
:1050B000017CB1FA81F149090174704740F2041191
:1050C000C2F200014A788870002A08BF7047097848
:1050D000012917D1B0B540F284254FF42074C2F2F3
:1050E0000005012804BF4FF68054CFF6FF74284610
:1050F000214600F0A5F905F11C002146BDE8B040AD
:1051000000F09EB97047000040F20410C2F20000A7
:1051100090F82510022924BF013980F82510704726
:1051200040F20410C2F2000090F8251013299CBF31
:10513000013180F82510704740F20410C2F20000DF
:105140007047000040F20410C2F20000407870473F
:10515000F0B581B040F20416C2F200067178044640
:10516000B9B140F28425C2F200050027284600218B
:10517000777000F065F905F11C00002100F060F97E
:1051800030787763052807D0042802D100203076D4
:10519000F061347001B0F0BD86F82470347001B055
:1051A000F0BD000040F20410C2F20000017A49B3E1
:1051B0004A1ED1B2022925D8027248F2C032C0F686
:1051C0000302437852F82120002BC26008BF7047C9
:1051D0000078022816D1B0B547F6DC50C0F60300BF
:1051E00050F8214040F28425C2F2000528462146AD
:1051F00000F026F905F11C002146BDE8B04000F0A2
:105200001FB900BF70470000B0B540F20411C2F2F0
:105210000001087A012825D848F2C033421CC0F6A4
:1052200003034D780A7253F82220002DCA6008BF8C
:10523000B0BD0978022915D140F284254FF42074BD
:10524000C2F20005012808BF40F2C62428462146C4
:1052500000F0F6F805F11C002146BDE8B04000F072
:10526000EFB800BFB0BD000040F20410C2F2000071
:10527000417809B1704700BF017801220139042942
:10528000427088BF7047B0B5DFE801F00438242CC5
:105290000E0000BF80784FF41674012804BF4FF64B
:1052A000A854CFF6FF7434E040F2D421C2F20001DA
:1052B00089680022C0E90A1290F82520012100EE39
:1052C000102AB8EE400A80F8241080ED0C0A40F253
:1052D00026241EE00021C4F2F011416140F2262490
:1052E00017E000BF0121002201760021C4F2F01274
:1052F000C0E9071240F226240BE000BF007A032821
:1053000006D247F6DC51C0F6030151F8204000E018
:10531000002440F28425C2F200052846214600F010
:105320008FF805F11C002146BDE8B04000F088B8B8
:1053300070B540F20415C2F200056878E0B140F2A1
:105340008424C2F200040026204600216E7000F082
:1053500077F804F11C00002100F072F828786E63E1
:10536000052807D0042818BF70BD00202876E86102
:1053700070BD00BF85F8246070BD0000B0B50DF1B0
:10538000100C04469CE8211084E80E00E0602574AF
:10539000002508461146C4E9055CFEF7B7F9D4E9D3
:1053A0000201FEF7B3F9D4E900010068C1B1082990
:1053B00008D0042914BF402138214550E06828B99D
:1053C00013E000BF3C214550E06870B1082805D0CB
:1053D000042814BF4020382008E000BF3C2005E02E
:1053E00034214550E0680028F0D13420A168002223
:1053F00009680A50B0BD0000F0B583B040F28424C3
:1054000040F68C2501200027C2F20004C2F20005FC
:1054100040F22626CDE900702046294604222B467C
:105420000296FFF7ABFF0820CDE9000704F11C004E
:1054300029460C222B460296FFF7A0FF03B0F0BDD1
:1054400080B5D0F800C0DCF80C2053429942C8BFA8
:105450000B468A42B8BF1346012B11DB81698B4290
:10546000A8BF1946027C416192B14368DCF800C0D4
:1054700003B3082B1CD0042B14BF402338231AE09D
:10548000B3F1FF3F22DD1946027C4161002AECD1D5
:105490004368DCF80020002B3AD0082B24D0042BE2
:1054A00014BF40233823D150C16809BB35E000BF89
:1054B0003C2300E0342300224CF80320C26862B38E
:1054C000082A20D0042A2ED117E000BF81694A4261
:1054D0009342B8BF1A4690F810E0D8BF5942BEF1C7
:1054E000010F4261C1D1D3E73C23D150C168A1B1C2
:1054F000082907D0042915D10021382280680068C6
:10550000815080BD00213C2280680068815080BDB0
:105510003423D150C1680029EAD134228068006860
:10552000815080BD0021402280680068815080BD8C
:1055300070B540F2BC2140F2D420C2F2000140F22A
:105540000415C2F20000C2F2000591ED050A90EDCB
:10555000051A0A692978036930EE010AB6EE001AC5
:1055600020EE010A0529C5E90E2385ED0D0A75D047
:10557000042943D0032940F0E9806878002800F02E
:10558000E580287C72A101EB800090ED000A9FED80
:10559000721A9FED722A20EE010A95ED051A31EE7E
:1055A000000AB4EE420AF1EE10FAC8BFB0EE420AA9
:1055B00085ED050AB3EE091A30EE010AB2EE041ABF
:1055C00020EE010ABDEEC00A10EE104A40F284251A
:1055D000642CD8BF642440F2E730C2F20005844254
:1055E00028BF044628462146FFF72AFF05F11C0084
:1055F0002146BDE87040FFF723BF00BF6878002850
:1056000000F0A480E869297E01300329E86179D09F
:1056100002296FD0012940F0998095ED081A9FED7D
:10562000512A9FED510A31EE021AB4EE401AF1EE02
:1056300010FA85ED081A02DAB0F5FA7F09D30020D6
:105640000221C4F2822029760021B0EE401AC5E979
:105650000710B3EE090A31EE000AAFE769780029B6
:1056600074D095F82410012970D18068A96A9FED43
:105670003F1A401A48BF404200EE100AB8EEC00A76
:1056800080EE010A95F8251040F20F6201EE101A23
:10569000B8EE411A4A4385ED0B0A31EE400AB5EEE9
:1056A000400AF1EE10FA9FED321AB8BFB0EE410A8F
:1056B000904285ED0C0A49D340F284240220C2F2C4
:1056C000000485F824000026204600216E70FFF7B4
:1056D000B7FE04F11C000021FFF7B2FE28786E63CC
:1056E000052831D0042818BF70BD00202876E86155
:1056F00070BD00BFB0F5967F28D303202876002028
:10570000E86170BD95ED080A9FED151A30EE010AAB
:10571000B3EE0E1AB4EE410AF1EE10FA85ED080A66
:1057200002DDB0F5FA7F0BD300200421C4F2F010A3
:1057300029760021C5E90710FFF7FAFD687828B13E
:1057400095ED080A36E700BF85F8246070BD00BFFC
:105750000000A0400000A0410AD7233C00005243B3
:10576000295C8FBD295C8F3D0000824200E0C1446E
:1057700000000000FEE700002DE9F04F85B0B020EA
:1057800040F638248DF8100004A8C2F200044FF44B
:10579000807B01268DE841082046782100220123E4
:1057A0000027FCF7FDFD0DF11109204678210022AC
:1057B00001238DF81170CDE90096CDF808B0FCF703
:1057C000EFFD10208DF812000DF1120A204678210D
:1057D00000220123CDE900A6CDF808B0FCF7E0FDDA
:1057E0000DF113054FF000082046782140220123D7
:1057F0008DF81370CDE90056CDF808B0FCF7D0FD58
:1058000008F101004FFA80F8B8F1FF3FECDCB1205D
:1058100040F638248DF8100004A8C2F200044FF4BA
:10582000807B4FF001088DE8010920467821002295
:1058300001230026FCF7B4FD204678210022012335
:105840008DF81160CDE90098CDF808B0FCF7A8FDFF
:1058500010208DF812002046782100220123CDE986
:1058600000A8CDF808B0FCF79BFD00272046782162
:10587000402201238DF81360CDE90058CDF808B01F
:10588000FCF78EFD781C47B2B7F1FF3FEEDCB2208B
:1058900040F638248DF8100004A8C2F200044FF43A
:1058A000807B4FF001088DE8010920467821002215
:1058B00001230026FCF774FD2046782100220123F5
:1058C0008DF81160CDE90098CDF808B0FCF768FDBF
:1058D00010208DF812002046782100220123CDE906
:1058E00000A8CDF808B0FCF75BFD00272046782122
:1058F000402201238DF81360CDE90058CDF808B09F
:10590000FCF74EFD781C47B2B7F1FF3FEEDCB32049
:1059100040F638248DF8100004A8C2F200044FF4B9
:10592000807B4FF001088DE8010920467821002294
:1059300001230026FCF734FD2046782100220123B4
:105940008DF81160CDE90098CDF808B0FCF728FD7E
:1059500010208DF812002046782100220123CDE985
:1059600000A8CDF808B0FCF71BFD002720467821E1
:10597000402201238DF81360CDE90058CDF808B01E
:10598000FCF70EFD781C47B2B7F1FF3FEEDC05B027
:10599000BDE8F08F2DE9F04385B06420FCF72CFAC8
:1059A00040F2CC07C2F20007387840F63824C2F241
:1059B00000048DF8100004AD204678210022012358
:1059C0004FF4807901268DE860024FF00008FCF763
:1059D000E7FC787878218DF810002046002201231A
:1059E000CDE90056CDF80890FCF7DAFCB8787821BC
:1059F0008DF81000204600220123CDE90056CDF895
:105A00000890FCF7CDFCF87878218DF8100020463E
:105A100000220123CDE90056CDF80890FCF7C0FC28
:105A2000387978218DF81000204600220123CDE935
:105A30000056CDF80890FCF7B3FC787978218DF802
:105A40001000204600220123CDE90056CDF8089031
:105A5000FCF7A6FCB87978218DF8100020460022CA
:105A60000123CDE90056CDF80890FCF799FCF879B0
:105A700078218DF81000204600220123CDE9005640
:105A8000CDF80890FCF78CFC387A78218DF810005E
:105A9000204600220123CDE90056CDF80890FCF7FE
:105AA0007FFC787A78218DF81000204600220123AF
:105AB000CDE90056CDF80890FCF772FCB87A782151
:105AC0008DF81000204600220123CDE90056CDF8C4
:105AD0000890FCF765FCF87A78218DF810002046D4
